:020000040000FA
:100000000C9463000C94270A0C94000A0C948B0047
:100010000C948B000C948B000C948B000C948B0034
:100020000C948B000C948B000C948B000C948B0024
:100030000C948B000C948B000C948B000C948B0014
:100040000C94B6090C948B000C94740A0C944E0A10
:100050000C948B000C948B000C948B000C948B00F4
:100060000C948B000C948B000000000024002700EF
:100070002A0000000000250028002B0000000000DE
:1000800023002600290004040404040404040202DA
:100090000202020203030303030301020408102007
:1000A0004080010204081020010204081020000012
:1000B0000008000201000003040700000000000027
:1000C0000000A60A020E11241FBECFEFD8E0DEBF4B
:1000D000CDBF22E0ACECB1E001C01D92AC3CB20758
:1000E000E1F711E0A0E0B1E0ECE4F6E202C0059037
:1000F0000D92AC3CB107D9F710E0C2E6D0E004C0E5
:100100002197FE010E942111C136D107C9F70E9433
:10011000EF0B0C9419130C9400008F929F92AF92E6
:10012000BF92CF92DF92EF92FF920F931F93CF93E4
:10013000DF938B01D82FC92F8090A0029090A1024D
:10014000A090A202B090A30275016401F7FAF094A6
:10015000F7F8F0949B01482F592FC701B6010E9470
:100160007B10181674F098014D2F5C2FC501B40157
:100170000E940B0E7501640187FD03C06801ED2E1E
:10018000FC2E20E030E0A901C701B6010E940B0E51
:1001900081111DC01092870210928802109289026C
:1001A00010928A02C0929C02D0929D02E0929E021E
:1001B000F0929F02DF91CF911F910F91FF90EF90EE
:1001C000DF90CF90BF90AF909F908F900895A70140
:1001D000960160E074E284E799E40E94D30F9F7770
:1001E0000E944C106093870270938802809389026A
:1001F00090938A02C1E020E030E0A901C701B60176
:100200000E947B1018160CF0C0E0C0938602CACF83
:10021000833081F028F4813099F08230A9F008957C
:100220008730A9F08830C9F08430B1F48091800023
:100230008F7D03C0809180008F7780938000089528
:1002400084B58F7784BD089584B58F7DFBCF809171
:10025000B0008F778093B00008958091B0008F7DBB
:10026000F9CFCF93DF93282F30E0F901E255FF4F0C
:100270008491F901E656FF4FD491F901EA57FF4FF7
:10028000C491CC23A1F081110E940801EC2FF0E071
:10029000EE0FFF1FE458FF4FA591B491EC91ED23B1
:1002A00081E090E009F480E0DF91CF91089580E053
:1002B00090E0FACF1F93CF93DF93282F30E0F9011E
:1002C000E255FF4F8491F901E656FF4FD491F901B1
:1002D000EA57FF4FC491CC23A9F0162F81110E9439
:1002E0000801EC2FF0E0EE0FFF1FEE58FF4FA59135
:1002F000B4918FB7F894EC91111108C0D095DE231A
:10030000DC938FBFDF91CF911F910895DE2BF8CF43
:10031000CF93DF9390E0FC01E656FF4F24918A577C
:100320009F4FFC0184918823C9F090E0880F991FAA
:10033000FC01E859FF4FA591B491FC01EE58FF4F25
:10034000C591D49161110DC09FB7F8948C912095FF
:1003500082238C938881282328839FBFDF91CF91AC
:100360000895623051F49FB7F8943C91822F8095A4
:1003700083238C93E8812E2BEFCF8FB7F894EC91E9
:100380002E2B2C938FBFEACF3FB7F8948091DD01DD
:100390009091DE01A091DF01B091E00126B5A89B0C
:1003A00005C02F3F19F00196A11DB11D3FBFBA2F07
:1003B000A92F982F8827BC01CD01620F711D811DC7
:1003C000911D42E0660F771F881F991F4A95D1F74C
:1003D00008958F929F92AF92BF92CF92DF92EF9249
:1003E000FF924B015C010E94C4016B017C010E94E1
:1003F000C4016C197D098E099F09683E734081050F
:100400009105A8F321E0821A9108A108B10888EEAD
:10041000C80E83E0D81EE11CF11C81149104A104D4
:10042000B10429F7FF90EF90DF90CF90BF90AF908D
:100430009F908F9008950895AF92BF92CF92DF92D0
:10044000EF92FF920F931F93CF93DF936C017B0189
:100450008B01040F151FEB015E01AE18BF08C0171A
:10046000D10759F06991D601ED91FC910190F0818D
:10047000E02DC6010995892B79F7C501DF91CF9150
:100480001F910F91FF90EF90DF90CF90BF90AF90B2
:100490000895FC01538D448D252F30E0842F90E08A
:1004A000821B930B541710F0CF960895019708956F
:1004B000FC01918D828D981761F0A28DAE0FBF2F38
:1004C000B11D5D968C91928D9F5F9F73928F90E08E
:1004D00008958FEF9FEF0895FC01918D828D9817FD
:1004E00031F0828DE80FF11D858D90E008958FEF3A
:1004F0009FEF0895FC01918D228D892F90E0805C03
:100500009F4F821B91098F739927089581EE91E087
:100510000E947A0221E0892B09F420E0822F0895BD
:1005200080E090E0892B29F00E94860281110C94D2
:1005300000000895FC01A48DA80FB92FB11DA35A86
:10054000BF4F2C91848D90E001968F739927848FF3
:10055000A689B7892C93A089B1898C918370806416
:100560008C93938D848D981306C00288F389E02DB7
:1005700080818F7D80830895EF92FF920F931F9368
:10058000CF93DF93EC0181E0888F9B8D8C8D981346
:100590001AC0E889F989808185FF15C09FB7F89452
:1005A000EE89FF896083E889F9898081837080649E
:1005B00080839FBF81E090E0DF91CF911F910F91E9
:1005C000FF90EF900895F62E0B8D10E00F5F1F4FF8
:1005D0000F731127E02E8C8D8E110CC00FB607FC07
:1005E000FACFE889F989808185FFF5CFCE010E9495
:1005F0009A02F1CFEB8DEC0FFD2FF11DE35AFF4F67
:10060000F0829FB7F8940B8FEA89FB898081806222
:10061000CFCFCF93DF93EC01888D8823B9F0AA89DF
:10062000BB89E889F9898C9185FD03C0808186FDAD
:100630000DC00FB607FCF7CF8C9185FFF2CF8081FC
:1006400085FFEDCFCE010E949A02E9CFDF91CF91D5
:100650000895CF93DF93FC012781222359F1EC0108
:1006600061E080850E94880161E089850E9488019F
:100670008F81843011F08830B1F461E08A850E9466
:10068000880161E08B850E9488018FA58F3F91F0E2
:1006900061E00E9488016EA581E068278FA5DF9147
:1006A000CF910C945A01833011F0863071F761E0DC
:1006B0008A85E9CFDF91CF910895CF93DF93FC0135
:1006C00027812223A9F0EC010190F081E02D028422
:1006D000F385E02D60E009958FA58F3F49F061E03B
:1006E0000E9488016EA58FA5DF91CF910C945A01CD
:1006F000DF91CF910895DC01ED91FC912285338546
:1007000047705527662777274150510961097109BC
:10071000473051056105710560F4FA01EE56FC4F52
:100720000C9421119C039E03A003A203A403A6031F
:10073000A80361E0F901099465E0FCCF64E0FACF19
:1007400066E0F8CF62E0F6CF6AE0F4CF68E0F2CF7F
:1007500069E0F0CFCF93DF93EC01CB01BA0126E043
:1007600030E040E050E00E940211623071058105E6
:10077000910589F16CF46115710581059105D1F040
:100780006130710581059105F9F0DF91CF910895F0
:10079000643071058105910561F124F165307105C1
:1007A0008105910591F7E881F9810284F385E02DB7
:1007B00066E006C0E881F9810284F385E02D64E0FB
:1007C000CE01DF91CF910994E881F9810284F3850C
:1007D000E02D65E0F5CFE881F9810284F385E02D15
:1007E00061E0EECFE881F9810284F385E02D63E0DA
:1007F000E7CFE881F9810284F385E02D62E0E0CF64
:10080000DC01ED91FC910284F385E02D43705527C6
:1008100066277727423051056105710571F0433035
:1008200051056105710559F04130510561057105AA
:1008300011F065E0099466E0FDCF6AE0FBCF69E066
:10084000F9CFCF93DF93EC01CB01BA0123E030E085
:1008500040E050E00E940211613071058105910570
:1008600099F06230710581059105A9F0672B682B1D
:10087000692BC1F4E881F9810284F385E02D64E0FD
:10088000CE01DF91CF910994E881F9810284F3854B
:10089000E02D61E0F5CFE881F9810284F385E02D58
:1008A00062E0EECFDF91CF910895DC01ED91FC91F4
:1008B0000284F385E02D4370552766277727423061
:1008C00051056105710571F04330510561057105F0
:1008D00059F0413051056105710511F062E009944C
:1008E00063E0FDCF61E0FBCF60E0F9CFCF93DF9312
:1008F000EC01E881F9810284F385E02D8A8160E0D2
:10090000811162E0CE010995E881F9810284F385C5
:10091000E02D8A8161E0811163E0CE0109958CA50B
:100920009DA58230910538F0880F991F880F991F77
:1009300005970197F1F7E881F9810284F385E02DAD
:100940008A8160E0811162E0CE01DF91CF9109944C
:10095000CF93DF93EC0120E030E0A901688D798D21
:100960008A8D9B8D0E947B1018162CF4E8A9F9A99A
:10097000DF91CF910994EAA9FBA9FACFCF92DF9238
:10098000EF92FF920F931F93CF93DF93DC011796A3
:10099000CC91C43039F0C83059F1C33019F0C630A9
:1009A00049F1C2E08C01085F1F4FF12CE12CC62EEB
:1009B000D12CD1E0F8016481C6010E2C02C09595BE
:1009C00087950A94E2F780FD6D270F5F1F4F8081A6
:1009D0000E945A01BFEFEB1AFB0AEC1658F3DF91A5
:1009E000CF911F910F91FF90EF90DF90CF900895DE
:1009F000C4E0D8CFC3E0D6CFDC011796EC911797AF
:100A0000E93008F038C0F0E0E85FFA4F0C942111AB
:100A1000110517051D05230529053B052F053B0578
:100A20003505ED91FC910684F785E02D0994ED9153
:100A3000FC910088F189E02DF9CFED91FC910288BD
:100A4000F389E02DF3CFED91FC910488F589E02D39
:100A5000EDCFED91FC910688F789E02DE7CFED9180
:100A6000FC91008CF18DE02DE1CFED91FC91028C99
:100A7000F38DE02DDBCF08954F925F926F927F92BE
:100A80008F929F92AF92BF92CF92DF92EF92FF929E
:100A90000F931F93CF93DF93EC01CC88DD88EE8812
:100AA000FF8888899989AA89BB89C81AD90AEA0A5C
:100AB000FB0A688D798D8A8D9B8D9B01AC010E940C
:100AC000710E4B015C0168A179A18AA19BA19B01D8
:100AD000AC010E94670F9B01AC01C501B4010E94EB
:100AE000D30F0E944510C114D104E104F10409F0B0
:100AF000B6C062307105810591050CF0D0C01B8233
:100B00001C821D821E82188E198E1A8E1B8E1CAAA4
:100B10001DAA1EAA1FAAC12CD12C7601C701B6019D
:100B2000DF91CF911F910F91FF90EF90DF90CF90C9
:100B3000BF90AF909F908F907F906F905F904F90FD
:100B400008951016110612061306B4F46C157D05EF
:100B50008E059F051CF42A812111A1C09B01AC01C7
:100B600088279927DC01821B930BA40BB50B8CAB58
:100B70009DABAEABBFAB93C001151105210531058F
:100B800009F48DC06C157D058E059F050CF087C09E
:100B90008A81882309F483C03095209510950195AA
:100BA0001F4F2F4F3F4F0CAB1DAB2EAB3FAB77C052
:100BB000011511052105310509F471C08824992416
:100BC00054018C189D08AE08BF08681579058A0580
:100BD0009B050CF064C08A81811161C0DDCFCCAC73
:100BE000DDACEEACFFACA7019601C701B6010E94D7
:100BF000670F2B013C01C501B4010E94120E20E0D9
:100C000030E040E850E40E94710E20E030E040E81F
:100C10005FE30E94670F9B01AC01C301B2010E9418
:100C2000D30F9B01AC01C701B6010E94660F3B01C7
:100C30006C01FE01E05CFF4FE080F18002811381D6
:100C40009701A8010E947B10181614F47301860105
:100C5000C701D8018CAF9DAFAEAFBFAF3AC00CA9F2
:100C60001DA92EA93FA91C141D041E041F040CF469
:100C700068CF10161106120613060CF099CF002744
:100C8000112798010C191D092E093F0960177107DA
:100C9000820793070CF062CF2A8121115FCF8CA8C5
:100CA0009DA8AEA8BFA881149104A104B10409F0C5
:100CB00096CF88AD99ADAAADBBAD8CAF9DAFAEAFB1
:100CC000BFAF81E01C141D041E041F040CF080E063
:100CD0008A833FEF831A930AA30AB30A8CAA9DAAB8
:100CE000AEAABFAA8CAC9DACAEACBFACC501B40182
:100CF0000E944C106B017C01CB82DC82ED82FE8273
:100D0000A501940160E074E284E799E40E94D30FA6
:100D1000688F798F8A8F9B8F2A812111FFCE9058FF
:100D2000688F798F8A8F9B8FF9CECF92DF92EF9267
:100D3000FF92CF93DF93C4E8D2E0688D798D8A8DDE
:100D40009B8D9B01AC010E94710E6B017C0168A11F
:100D500079A18AA19BA19B01AC010E94670F9B0115
:100D6000AC01C701B6010E94D30F0E9445106CABC5
:100D70007DAB8EAB9FABCE01DF91CF91FF90EF901B
:100D8000DF90CF900C943C050895FC010190002069
:100D9000E9F73197AF01481B590BBC0181EE91E097
:100DA0000C941C028F929F92AF92BF920F931F934D
:100DB000CF93DF93CDB7DEB7A1970FB6F894DEBF20
:100DC0000FBECDBF19A2423008F44AE08E010F5D7C
:100DD0001F4F842E912CB12CA12CA50194010E94AF
:100DE000E010E62FB901CA01EA30F4F4E05DD80161
:100DF000EE938D01232B242B252B79F790E080E0B7
:100E0000109719F0CD010E94C506A1960FB6F8946F
:100E1000DEBF0FBECDBFDF91CF911F910F91BF906D
:100E2000AF909F908F900895E95CE1CFCF92DF92D1
:100E3000EF92FF92CF93DF936C01990FEE08FF08BA
:100E4000F7FE19C06DE281EE91E00E94BC02EC0158
:100E500066277727CB016C197D098E099F094AE027
:100E60000E94D2068C0F9D1FDF91CF91FF90EF90D3
:100E7000DF90CF9008954AE0C701B601DF91CF918E
:100E8000FF90EF90DF90CF900C94D206CF93DF933A
:100E90000E94C506EC018CE391E00E94C5068C0F10
:100EA0009D1FDF91CF9108950C94C311CF93DF93D1
:100EB000EC0180917E0290917F02009759F0209181
:100EC0008002309181022C173D0720F081E0DF91F4
:100ED000CF910895BE016F5F7F4F0E944C12009723
:100EE00089F090937F0280937E02D0938102C09319
:100EF00080022091820230918302232B39F7FC017A
:100F00001082E4CF80E0E3CF0F931F93CF93DF9362
:100F10008C01EC0109900020E9F72197C81BD90B3F
:100F2000CE010E94560720917E0230917F028111EE
:100F300017C02115310519F0C9010E94C311109283
:100F40007F0210927E02109283021092820210920F
:100F5000810210928002DF91CF911F910F9108952D
:100F6000D0938302C0938202B801C901DF91CF916F
:100F70001F910F910C9412134F925F926F927F9278
:100F80008F929F92AF92BF92CF92DF92EF92FF9299
:100F900082E00E9431019093CF018093CE01209195
:100FA000CC013091CD018217930709F483C00197DA
:100FB00009F080C08091D0019091D101019709F092
:100FC000ADC083E00E9431014091D6015091D7011C
:100FD000052E000C660B770B019709F480C0CB013E
:100FE000BA010E94120E6B017C0120E030E84BEB4D
:100FF00055E40E940B0E87FF0EC020E030E046E172
:1010000054E4C701B6010E94670F0E944510709317
:10101000D7016093D60180E491E00E94840785E5C2
:1010200091E00E94C5068091D0019091D1010E946B
:10103000160784E691E00E94C50640918202509115
:10104000830260917E0270917F0281EE91E00E94A6
:101050001C0283E791E00E94C5068091D601909121
:10106000D7010E9416078EE791E00E94C5066091A5
:10107000D6017091D701072E000C880B990B0E94A6
:10108000120E20E030E046E154E40E94D30F6B01E1
:101090007C014B015C01AC019B010E94C6108823BE
:1010A00009F441C086E891E00E94C50682E991E01A
:1010B0000E9446078091CE019091CF019093CD017F
:1010C0008093CC01FF90EF90DF90CF90BF90AF90D6
:1010D0009F908F907F906F905F904F900895CB017D
:1010E000BA010E94120E6B017C0120E030E84BEB4C
:1010F00055EC0E947B10181674F420E030E046E1B5
:1011000054E4C701B6010E94660F0E944510709317
:10111000D7016093D6018FE391E07FCF83E491E024
:101120000E9446077CCF26013701E89477F82FEF1D
:101130003FEF4FE75FE7C301B2010E94C610811184
:101140000DC02FEF3FEF4FE75FE7C301B2010E94F1
:101150000B0E18161CF48AE891E0A6CF2FEF3FEF94
:101160004FE75FE4C701B6010E947B1018161CF41C
:101170008EE891E099CF2FEF3FEF4FE75FECC7018B
:10118000B6010E940B0E87FDF3CF20E030E0A901ED
:10119000C701B6010E940B0E87FF0BC06DE281EE06
:1011A00091E00E94BC0246015701B7FAB094B7F82B
:1011B000B0942AE037ED43EA5BE3C501B4010E9435
:1011C000670F4B015C010E944C106B017C010E9477
:1011D000100E9B01AC01C501B4010E94660F4B01CA
:1011E0005C014AE0C701B6010E94D2066EE281EEC0
:1011F00091E00E94BC0220E030E040E251E4C501F1
:10120000B4010E94710E4B015C010E944C106B01F5
:10121000F12CE12C4AE0C701B6010E94D206C701B9
:10122000B6010E94100E9B01AC01C501B4010E94E1
:10123000660F20E030E040E251E40E94710E0E940F
:101240004C1090E080E04AE00E94D2062FCF4F92EF
:101250005F926F927F928F929F92AF92BF92CF9246
:10126000DF92EF92FF926B017C0120E030E0A90158
:101270000E940B0E87FF04C0F7FAF094F7F8F09481
:101280008090A4029090A502A090A602B090A70220
:10129000A7019601C501B4010E940B0E882309F431
:1012A00058C06091B8027091B9028091BA029091D1
:1012B000BB020E94120E2B013C01A7019601C50141
:1012C000B4010E94D30F9B01AC01C301B2010E9483
:1012D000710E0E9445106093B8027093B90280931A
:1012E000BA029093BB02A701960160E070E080E033
:1012F00090E40E94D30F0E94861026E53EE04DE266
:101300005FE30E94710E20E034E244E759E40E945A
:10131000710E6093BC027093BD028093BE029093E5
:10132000BF02C092A402D092A502E092A602F0925F
:10133000A70284E892E0FF90EF90DF90CF90BF90FB
:10134000AF909F908F907F906F905F904F900C9494
:101350003C05FF90EF90DF90CF90BF90AF909F90B3
:101360008F907F906F905F904F9008951F920F9293
:101370000FB60F9211242F933F938F939F93AF93A8
:10138000BF938091D9019091DA01A091DB01B091D6
:10139000DC013091D80123E0230F2D3758F5019659
:1013A000A11DB11D2093D8018093D9019093DA013A
:1013B000A093DB01B093DC018091DD019091DE010F
:1013C000A091DF01B091E0010196A11DB11D8093B4
:1013D000DD019093DE01A093DF01B093E001BF91A6
:1013E000AF919F918F913F912F910F900FBE0F90D2
:1013F0001F90189526E8230F0296A11DB11DD2CF8C
:101400001F920F920FB60F9211242F933F934F9379
:101410005F936F937F938F939F93AF93BF93EF935C
:10142000FF93E0910201F09103010995FF91EF9183
:10143000BF91AF919F918F917F916F915F914F91EC
:101440003F912F910F900FBE0F901F9018951F92F4
:101450000F920FB60F9211242F933F934F935F93E8
:101460006F937F938F939F93AF93BF93EF93FF936C
:10147000E0910001F09101010995FF91EF91BF9179
:10148000AF919F918F917F916F915F914F913F911C
:101490002F910F900FBE0F901F9018951F920F92D3
:1014A0000FB60F9211242F933F934F935F936F9337
:1014B0007F938F939F93AF93BF93EF93FF9381EEAF
:1014C00091E00E949A02FF91EF91BF91AF919F919D
:1014D0008F917F916F915F914F913F912F910F90DD
:1014E0000FBE0F901F9018951F920F920FB60F927C
:1014F00011242F938F939F93EF93FF93E091F1012A
:10150000F091F2018081E091F701F091F80182FD04
:101510001BC090818091FA018F5F8F732091FB0136
:10152000821741F0E091FA01F0E0EF51FE4F958F04
:101530008093FA01FF91EF919F918F912F910F90DE
:101540000FBE0F901F9018958081F4CFCF92DF923D
:10155000EF92FF921092E4011092E30188EE93E083
:10156000A0E0B0E08093E5019093E601A093E7014D
:10157000B093E8018EE091E09093E2018093E10165
:1015800085EC90E09093EE018093ED0184EC90E087
:101590009093F0018093EF0180EC90E09093F20142
:1015A0008093F10181EC90E09093F4018093F3013A
:1015B00082EC90E09093F6018093F50186EC90E048
:1015C0009093F8018093F7011092FA011092FB01B9
:1015D0001092FC011092FD0180E291E0909385024F
:1015E0008093840281E080938B0210929402109287
:1015F0009502109296021092970210929802109201
:10160000990210929A0210929B0210929C021092E0
:101610009D0210929E0210929F021092A0021092C0
:10162000A1021092A2021092A3021092A4021092A0
:10163000A5021092A6021092A702C12CD12C80E81C
:10164000E82E8FE3F82EC092A802D092A902E09271
:10165000AA02F092AB0210928702109288021092B6
:10166000890210928A0281E090E09093B102809307
:10167000B0028FEF8093B3021092AC021092AD02D1
:101680001092AE021092AF028BE080938C028AE03F
:1016900080938D0284E080938E0285E080938F0298
:1016A0001092B2021092B8021092B9021092BA02CD
:1016B0001092BB021092BC021092BD021092BE02A8
:1016C0001092BF021092C0021092C1021092C20288
:1016D0001092C302C092C402D092C502E092C60228
:1016E000F092C7021092860210929002109291021C
:1016F000109292021092930284E892E00E942903D1
:10170000C701B6010E942709A70196016091A002B6
:101710007091A1028091A2029091A3020E940B0EEF
:10172000882319F1C092A002D092A102E092A202F5
:10173000F092A30280E094E2A4E7B9E48093C402AB
:101740009093C502A093C602B093C7028091B802DD
:101750009091B902A091BA02B091BB021816190675
:101760001A061B0614F40E94950610927F0210922E
:101770007E021092810210928002109283021092D7
:10178000820290E080E00E94560720917E02309114
:101790007F02811117C02115310519F0C9010E947E
:1017A000C31110927F0210927E0210928302109257
:1017B00082021092810210928002FF90EF90DF90DF
:1017C000CF90089510928302109282026EE371E02E
:1017D000C901FF90EF90DF90CF900C941213789492
:1017E00084B5826084BD84B5816084BD85B5826026
:1017F00085BD85B5816085BD80916E0081608093D7
:101800006E0010928100809181008260809381003F
:10181000809181008160809381008091800081604F
:10182000809380008091B10084608093B1008091AA
:10183000B00081608093B00080917A0084608093D2
:101840007A0080917A00826080937A0080917A0099
:10185000816080937A0080917A00806880937A001A
:101860001092C10060E082E00E94880160E083E0A5
:101870000E94880162E084E00E9488012CEB37E03E
:101880003093010120930001809169008C7F816079
:1018900080936900E89A30930301209302018091BC
:1018A0006900837F846080936900E99A61E08CE03D
:1018B0000E94880161E08BE00E94880161E08AE07B
:1018C0000E948801E091F101F091F20182E08083B1
:1018D000E091ED01F091EE011082E091EF01F091C5
:1018E000F0018FEC80831092F901E091F501F09105
:1018F000F60186E08083E091F301F091F4018081AC
:1019000080618083E091F301F091F401808188602F
:101910008083E091F301F091F401808180688083FD
:10192000E091F301F091F40180818F7D808384E95F
:1019300091E00E94460720E030E84BEB55E46091CF
:10194000A0027091A1028091A2029091A3020E9434
:101950000B0E882339F180E090E8ABEBB5E480937F
:10196000A0029093A102A093A202B093A3028BEADB
:101970009AEAA6E2B3E48093C4029093C502A093CE
:10198000C602B093C7028091B8029091B902A091AB
:10199000BA02B091BB02181619061A061B0614F4F7
:1019A0000E94950660E070E88BE396E40E942709A8
:1019B00084E892E00E94290361E08CE00E945A01D1
:1019C00061E088E00E94880161E087E00E94880170
:1019D00061E086E00E94880168EE73E080E090E0BC
:1019E0000E94E90161E088E00E945A01C0E0D0E075
:1019F00001E010E084E00E943101892B09F06DC004
:101A00002FB7F8948091D9019091DA01A091DB0170
:101A1000B091DC012FBF4091D2015091D301609170
:101A2000D4017091D501841B950BA60BB70B893C93
:101A30009105A105B10508F450C08091D0019091A5
:101A4000D101019709F0C7C01092D1011092D001C5
:101A500020E030E0A90160919C0270919D0280918C
:101A60009E0290919F020E940B0E882329F060E055
:101A700070E0CB010E948D0064EF71E080E090E0A7
:101A80000E94E90161E08CE00E945A0184E892E042
:101A90000E945D031092D7011092D60160E086E0AB
:101AA0000E945A0161E088E00E945A018DE991E0AC
:101AB0000E9446072FB7F8948091D9019091DA01DE
:101AC000A091DB01B091DC012FBF8093D2019093F4
:101AD000D301A093D401B093D5016091D601709148
:101AE000D701072E000C880B990B0E94120E6B0178
:101AF0007C0120919C0230919D0240919E02509168
:101B00009F020E940B0E882321F0C701B6010E949C
:101B10008D008091870290918802A0918902B091F6
:101B20008A02892B8A2B8B2B09F44AC00E94C4019C
:101B30006B017C018091AC029091AD02A091AE024C
:101B4000B091AF02B701A601481B590B6A0B7B0B82
:101B50008091870290918802A0918902B0918A02B7
:101B6000481759076A077B0758F1809194029091B2
:101B70009502A0919602B0919702209186022223AD
:101B8000E9F10196A11DB11D8093940290939502F5
:101B9000A0939602B09397024091940250919502BF
:101BA000609196027091970284E892E00E94FC0492
:101BB000C092AC02D092AD02E092AE02F092AF02BF
:101BC000209709F417CF0E948602882309F412CFC8
:101BD0000E9400000FCF1093D1010093D00160E06C
:101BE0008CE00E945A0160E088E00E945A0161E0A6
:101BF00086E00E945A018BEB91E05ACF0197A10930
:101C0000B109C2CF80917E0290917F02009711F0BE
:101C10000C94C31108950E944D0E08F481E00895BC
:101C2000E89409C097FB3EF4909580957095619576
:101C30007F4F8F4F9F4F9923A9F0F92F96E9BB272C
:101C40009395F695879577956795B795F111F8CFA8
:101C5000FAF4BB0F11F460FF1BC06F5F7F4F8F4F13
:101C60009F4F16C0882311F096E911C0772321F009
:101C70009EE8872F762F05C0662371F096E8862FA1
:101C800070E060E02AF09A95660F771F881FDAF7F8
:101C9000880F9695879597F90895990F0008550F25
:101CA000AA0BE0E8FEEF16161706E807F907C0F0E2
:101CB00012161306E407F50798F0621B730B840BEA
:101CC000950B39F40A2661F0232B242B252B21F4C4
:101CD00008950A2609F4A140A6958FEF811D811D64
:101CE00008950E94840E0C94F50E0E94E70E38F0C1
:101CF0000E94EE0E20F0952311F00C94DE0E0C9451
:101D0000E40E11240C94290F0E94060F70F3959F86
:101D1000C1F3950F50E0551F629FF001729FBB27E2
:101D2000F00DB11D639FAA27F00DB11DAA1F649F7E
:101D30006627B00DA11D661F829F2227B00DA11D31
:101D4000621F739FB00DA11D621F839FA00D611DB7
:101D5000221F749F3327A00D611D231F849F600DD8
:101D6000211D822F762F6A2F11249F5750409AF001
:101D7000F1F088234AF0EE0FFF1FBB1F661F771F8D
:101D8000881F91505040A9F79E3F510580F00C9458
:101D9000DE0E0C94290F5F3FE4F3983ED4F3869552
:101DA00077956795B795F795E7959F5FC1F7FE2BF8
:101DB000880F911D9695879597F9089597F99F67D4
:101DC00080E870E060E008959FEF80EC08950024C3
:101DD0000A941616170618060906089500240A9490
:101DE00012161306140605060895092E0394000C16
:101DF00011F4882352F0BB0F40F4BF2B11F460FFA5
:101E000004C06F5F7F4F8F4F9F4F089557FD9058CD
:101E1000440F551F59F05F3F71F04795880F97FBAE
:101E2000991F61F09F3F79F0879508951216130668
:101E30001406551FF2CF4695F1DF08C01616170697
:101E40001806991FF1CF86957105610508940895CC
:101E5000E894BB2766277727CB0197F908952F923F
:101E60003F924F925F926F927F928F929F92AF922A
:101E7000BF92CF92DF92EF92FF920F931F93CF9377
:101E8000DF93CDB7DEB7CA1BDB0B0FB6F894DEBF0E
:101E90000FBECDBF09942A88398848885F846E8434
:101EA0007D848C849B84AA84B984C884DF80EE807E
:101EB000FD800C811B81AA81B981CE0FD11D0FB687
:101EC000F894DEBF0FBECDBFED0108955058BB277B
:101ED000AA270E947E0F0C94F50E0E94E70E38F0A0
:101EE0000E94EE0E20F039F49F3F19F426F40C9472
:101EF000E40E0EF4E095E7FB0C94DE0EE92F0E9451
:101F0000060F58F3BA17620773078407950720F086
:101F100079F4A6F50C94280F0EF4E0950B2EBA2F49
:101F2000A02D0B01B90190010C01CA01A0011124DF
:101F3000FF27591B99F0593F50F4503E68F11A168B
:101F4000F040A22F232F342F4427585FF3CF46951C
:101F500037952795A795F0405395C9F77EF41F163E
:101F6000BA0B620B730B840BBAF09150A1F0FF0F08
:101F7000BB1F661F771F881FC2F70EC0BA0F621FF4
:101F8000731F841F48F4879577956795B795F795E4
:101F90009E3F08F0B0CF9395880F08F09927EE0F79
:101FA0009795879508950E94E70F0C94F50E0E946F
:101FB000EE0E58F00E94E70E40F029F45F3F29F042
:101FC0000C94DE0E51110C94290F0C94E40E0E9417
:101FD000060F68F39923B1F3552391F3951B550B25
:101FE000BB27AA2762177307840738F09F5F5F4FEC
:101FF000220F331F441FAA1FA9F335D00E2E3AF02B
:10200000E0E832D091505040E695001CCAF72BD042
:10201000FE2F29D0660F771F881FBB1F2617370793
:102020004807AB07B0E809F0BB0B802DBF01FF27C5
:1020300093585F4F3AF09E3F510578F00C94DE0EB6
:102040000C94290F5F3FE4F3983ED4F3869577957F
:102050006795B795F7959F5FC9F7880F911D96957E
:10206000879597F90895E1E0660F771F881FBB1FDA
:10207000621773078407BA0720F0621B730B840B87
:10208000BA0BEE1F88F7E09508950E944C106894F3
:10209000B1110C94290F08950E940E0F88F09F57DC
:1020A00098F0B92F9927B751B0F0E1F0660F771F7C
:1020B000881F991F1AF0BA95C9F714C0B13091F072
:1020C0000E94280FB1E008950C94280F672F782FF5
:1020D0008827B85F39F0B93FCCF386957795679537
:1020E000B395D9F73EF490958095709561957F4FA3
:1020F0008F4F9F4F08950E944D0E08F48FEF089563
:1021000019F416F40C94E40E0C94CB100E940E0FEC
:10211000B8F39923C9F3B6F39F57550B87FF0E9475
:10212000D9100024A0E640EA900180585695979572
:1021300028F4805C660F771F881F20F0261737076A
:10214000480730F4621B730B840B202931294A2B7A
:10215000A69517940794202531254A2758F7660F2E
:10216000771F881F20F026173707480730F4620BC7
:10217000730B840B200D311D411DA09581F7B90112
:10218000842F9158880F9695879508950E944D0E3B
:10219000880B990B08959F3F31F0915020F487955B
:1021A00077956795B795880F911D9695879597F9BF
:1021B000089591505040660F771F881FD2F70895F9
:1021C000A1E21A2EAA1BBB1BFD010DC0AA1FBB1F3B
:1021D000EE1FFF1FA217B307E407F50720F0A21BAD
:1021E000B30BE40BF50B661F771F881F991F1A941A
:1021F00069F760957095809590959B01AC01BD0144
:10220000CF010895052E97FB1EF400940E9419112A
:1022100057FD07D00E94E01007FC03D04EF40C9449
:10222000191150954095309521953F4F4F4F5F4F75
:10223000089590958095709561957F4F8F4F9F4F32
:102240000895EE0FFF1F0590F491E02D09940F9370
:102250001F93CF93DF938230910510F482E090E0DA
:10226000E091CA02F091CB0230E020E0B0E0A0E0C3
:10227000309799F42115310509F44AC0281B390B10
:1022800024303105D8F58A819B816115710589F16A
:10229000FB0193838283FE0111C040815181028141
:1022A000138148175907E0F04817590799F4109718
:1022B00061F012960C93129713961C933296CF01ED
:1022C000DF91CF911F910F9108950093CA0210934F
:1022D000CB02F4CF2115310551F04217530738F0E6
:1022E000A901DB019A01BD01DF01F801C1CFEF01B6
:1022F000F9CF9093CB028093CA02CDCFFE01E20FBB
:10230000F31F819391932250310939832883D7CFCA
:102310002091C8023091C902232B41F4209106017B
:10232000309107013093C9022093C8022091040123
:10233000309105012115310541F42DB73EB740918B
:10234000080150910901241B350BE091C802F0915E
:10235000C902E217F307A0F42E1B3F0B2817390719
:1023600078F0AC014E5F5F4F2417350748F04E0FF1
:102370005F1F5093C9024093C802819391939FCFEE
:10238000F0E0E0E09CCFCF93DF930097E9F0FC0111
:10239000329713821282A091CA02B091CB02ED0152
:1023A00030E020E01097A1F420813181820F931F4B
:1023B0002091C8023091C9022817390709F061C07D
:1023C000F093C902E093C802DF91CF910895EA012A
:1023D000CE17DF07E8F54A815B819E014115510563
:1023E000B1F7E901FB83EA8349915991C40FD51FE5
:1023F000EC17FD0761F4808191810296840F951F8F
:10240000E90199838883828193819B838A83F0E0A9
:10241000E0E012968D919C9113970097B9F52D915C
:102420003C911197CD010296820F931F2091C80213
:102430003091C9022817390739F6309751F51092B3
:10244000CB021092CA02B093C902A093C802BCCFBB
:10245000D383C28340815181840F951FC817D90748
:1024600061F44E5F5F4F88819981480F591F5183F6
:1024700040838A819B81938382832115310509F0F2
:10248000B0CFF093CB02E093CA029ECFFD01DC01F6
:10249000C0CF13821282D7CFB0E0A0E0E2E5F2E134
:1024A0000C94310F8C01009751F4CB010E9427113D
:1024B0008C01C801CDB7DEB7E0E10C944D0FFC01F3
:1024C000E60FF71F9C0122503109E217F30708F4C9
:1024D0009DC0D901CD91DC911197C617D70798F00F
:1024E000C530D10530F3CE0104978617970708F35E
:1024F000C61BD70B2297C193D1936D937C93CF01C9
:102500000E94C311D6CF5B01AC1ABD0A4C018C0EE0
:102510009D1EA091CA02B091CB02512C412CF12CEE
:10252000E12C109731F58091C8029091C90288156D
:10253000990509F05CC04616570608F058C080910E
:10254000040190910501009741F48DB79EB7409129
:10255000080150910901841B950BE817F90708F051
:1025600055C0F093C902E093C802F90171836083FA
:10257000A0CF8D919C91119712966C901297139603
:102580007C901397A815B90559F56C0142E0C40E6B
:10259000D11CCA14DB0420F1AC014A195B09DA0131
:1025A0001296159780F06282738251834083D9011D
:1025B0006D937C93E114F10471F0D7011396FC93B1
:1025C000EE93129776CF22968C0F9D1FF90191837F
:1025D0008083F301EFCFF093CB02E093CA0269CF7F
:1025E0004816590608F42C017D01D3019ACFCB017E
:1025F0000E9427117C01009749F0AE01B8010E94AA
:102600000913C8010E94C311870153CF10E000E0F5
:1026100050CFFB01DC0102C001900D9241505040AF
:10262000D8F70895FB01DC0101900D920020E1F73D
:10263000089510E0C2E6D0E004C0FE010E9421111E
:102640002196C336D107C9F7F894FFCF1B021B02AE
:102650000000CC02800000000000BC021C02490205
:1026600009037A0258026C02000000005D0329038E
:10267000C40654073C05BE04FC04A80476045504B3
:1026800021040004AA037B030D0A004343570050B2
:102690006C7A205475726E206F6E204D6F746F725D
:1026A000004D6F746F72205374617475733A20001B
:1026B000207C20446972656374696F6E3A20002043
:1026C0007C2053706565643A2000207C2025203AE8
:1026D00020006E616E00696E66006F7666002500F0
:1026E00053746172742E2E2E00537465707065726F
:1026F00020506F776572204F6666202F20436F75DC
:102700006E7465722030005374657070657220506D
:082710006F776572204F6E0027
:107800000C94343C0C94513C0C94513C0C94513CE1
:107810000C94513C0C94513C0C94513C0C94513CB4
:107820000C94513C0C94513C0C94513C0C94513CA4
:107830000C94513C0C94513C0C94513C0C94513C94
:107840000C94513C0C94513C0C94513C0C94513C84
:107850000C94513C0C94513C0C94513C0C94513C74
:107860000C94513C0C94513C11241FBECFEFD8E036
:10787000DEBFCDBF11E0A0E0B1E0ECE9FFE702C060
:1078800005900D92A230B107D9F712E0A2E0B1E065
:1078900001C01D92AD30B107E1F70E942D3D0C945F
:1078A000CC3F0C94003C982F959595959595959582
:1078B000905D8F708A307CF0282F295A8091C0000B
:1078C00085FFFCCF9093C6008091C00085FFFCCF60
:1078D0002093C6000895282F205DF0CF982F809127
:1078E000C00085FFFCCF9093C6000895EF92FF92F1
:1078F0000F931F93EE24FF2487018091C00087FD22
:1079000017C00894E11CF11C011D111D81E4E8164B
:1079100082E4F8068FE0080780E0180770F3E09132
:107920000401F091050109958091C00087FFE9CF1E
:107930008091C6001F910F91FF90EF9008950E94D3
:10794000763C982F8091C00085FFFCCF9093C600B5
:1079500091362CF490330CF09053892F089597555D
:10796000892F08951F930E949F3C182F0E949F3CCF
:107970001295107F810F1F9108951F93182F882350
:1079800021F00E94763C1150E1F71F9108951F935A
:10799000182F0E94763C803249F0809103018F5F5E
:1079A000809303018530C1F01F9108958091C0003C
:1079B00085FFFCCF84E18093C6008091C00085FFE5
:1079C000FCCF1093C6008091C00085FFFCCF80E102
:1079D0008093C6001F910895E0910401F091050184
:1079E00009951F9108950E94763C803241F0809164
:1079F00003018F5F80930301853081F008958091AA
:107A0000C00085FFFCCF84E18093C6008091C00058
:107A100085FFFCCF80E18093C6000895E0910401CA
:107A2000F09105010995089540E951E08823A1F0FE
:107A30002D9A28EE33E0FA013197F1F721503040CA
:107A4000D1F72D9828EE33E0FA013197F1F7215064
:107A50003040D1F7815061F708953F924F925F9285
:107A60006F927F928F929F92AF92BF92CF92DF924E
:107A7000EF92FF920F931F93CF93DF93000080E16B
:107A80008093C4001092C50088E18093C10086E015
:107A90008093C2005098589A259A81E00E94143D24
:107AA00024E1F22E9EE1E92E85E9D82E0FE0C02ECA
:107AB00010E1B12EAA24A394B1E49B2EA6E58A2E50
:107AC000F2E57F2EE0E26E2E79E4572E63E5462E36
:107AD00050E5352E0E94763C8033B1F18133B9F107
:107AE000803409F46FC0813409F476C0823409F41B
:107AF00085C0853409F488C0803531F1823521F1A3
:107B0000813511F1853509F485C0863509F48DC0BC
:107B1000843609F496C0843709F403C1853709F423
:107B200072C1863709F466C0809103018F5F80932C
:107B30000301853079F6E0910401F0910501099582
:107B40000E94763C803351F60E94F33CC3CF0E94E2
:107B5000763C803249F78091C00085FFFCCFF092DF
:107B6000C6008091C00085FFFCCF9092C600809136
:107B7000C00085FFFCCF8092C6008091C00085FFC9
:107B8000FCCF7092C6008091C00085FFFCCF609250
:107B9000C6008091C00085FFFCCF5092C600809146
:107BA000C00085FFFCCF4092C6008091C00085FFD9
:107BB000FCCF3092C6008091C00085FFFCCFB09210
:107BC000C60088CF0E94763C863808F4BDCF0E945C
:107BD000763C0E94F33C7ECF0E94763C803809F4CC
:107BE0009CC0813809F40BC1823809F43CC1883942
:107BF00009F48FC080E00E94C73C6CCF84E10E94F2
:107C0000BD3C0E94F33C66CF85E00E94BD3C0E94D3
:107C1000F33C60CF0E94763C809306010E94763C44
:107C2000809307010E94F33C55CF0E94763C80333D
:107C300009F41DC183E00E94BD3C80E00E94C73C66
:107C400049CF0E94763C809309020E94763C809343
:107C5000080280910C028E7F80930C020E94763C79
:107C6000853409F415C18091080290910902892B8D
:107C700089F000E010E00E94763CF801E85FFE4FDA
:107C800080830F5F1F4F80910802909109020817AF
:107C9000190788F30E94763C803209F045CF809125
:107CA0000C0280FF01C16091060170910701660F0F
:107CB000771F7093070160930601A0910802B091AD
:107CC00009021097C9F0E8E0F1E09B01AD014E0F09
:107CD0005F1FF999FECF32BD21BD819180BDFA9A17
:107CE000F99A2F5F3F4FE417F50799F76A0F7B1F4B
:107CF00070930701609306018091C00085FFFCCF5F
:107D0000F092C6008091C00085FFFCCFB092C60003
:107D1000E1CE83E00E94C73CDDCE82E00E94C73CFA
:107D2000D9CE0E94763C809309020E94763C8093D3
:107D300008028091060190910701880F991F909386
:107D40000701809306010E94763C853409F4A6C0A1
:107D500080910C028E7F80930C020E94763C8032D0
:107D600009F0B8CE8091C00085FFFCCFF092C6002C
:107D7000609108027091090261157105B9F140E046
:107D800050E080910C02A82FA170B82FB27011C0E2
:107D9000BB2309F45CC0E0910601F0910701319624
:107DA000F0930701E09306014F5F5F4F46175707B7
:107DB000E8F4AA2369F3F999FECF209106013091E6
:107DC000070132BD21BDF89A90B58091C00085FFB2
:107DD000FCCF9093C6002F5F3F4F30930701209355
:107DE00006014F5F5F4F4617570718F38091C00099
:107DF00085FDE5CE8091C00085FFF8CFE0CE81E023
:107E00000E94C73C67CE0E94763C803209F08CCE3F
:107E10008091C00085FFFCCFF092C6008091C00029
:107E200085FFFCCFE092C6008091C00085FFFCCFAB
:107E3000D092C6008091C00085FFFCCFC092C600E2
:107E40008091C00085FFFCCFB092C60043CEE09188
:107E50000601F091070194918091C00085FFFCCF4D
:107E60009093C6009CCF80E10E94C73C33CE0E9415
:107E7000763C0E94763C182F0E94763C112309F430
:107E800083C0113009F484C08FE00E94C73C22CE29
:107E900080910C02816080930C02E5CE80910C02EF
:107EA000816080930C0259CF809107018823880F4D
:107EB000880B8A2180930B02809106019091070123
:107EC000880F991F90930701809306018091080203
:107ED00080FF09C080910802909109020196909359
:107EE000090280930802F894F999FECF1127E091D6
:107EF0000601F0910701C8E0D1E08091080290915D
:107F00000902103091F40091570001700130D9F34B
:107F100003E000935700E89500915700017001308D
:107F2000D9F301E100935700E89509901990009169
:107F3000570001700130D9F301E000935700E89534
:107F40001395103498F011270091570001700130FB
:107F5000D9F305E000935700E895009157000170B0
:107F60000130D9F301E100935700E895329602976A
:107F700009F0C7CF103011F00296E5CF112480919F
:107F8000C00085FFB9CEBCCE8EE10E94C73CA2CD19
:0E7F900085E90E94C73C9ECDF894FFCF80008B
:00000001FF
